:100000000C9472000C9486000C9486000C9486006C
:100010000C9486000C9486000C9486000C94860048
:100020000C9486000C9486000C9486000C94860038
:100030000C9486000C9486000C9486000C94860028
:100040000C9486000C9486000C9486000C94860018
:100050000C9486000C9486000C9486000C94860008
:100060000C9486000C9486000C9486000C948600F8
:100070000C9486000C9486000C9486000C948600E8
:100080000C9486000C9486000C9486000C948600D8
:100090000C9486000C9486000C9486000C948600C8
:1000A0000C9486000C9486000C9486000C948600B8
:1000B0000C9486000C9486000C9486000C948600A8
:1000C0000C9486000C9486000C9486000C94860098
:1000D0000C9486000C9486000C9486000C94860088
:1000E0000C94860011241FBECFEFD1E2DEBFCDBF3E
:1000F00000E00CBF22E0A0E0B2E001C01D92AE30F3
:10010000B207E1F70E94D2000C94C5060C940000DF
:100110003F980E983B983D983E9A0F9A3A9A3C9A8F
:1001200047981698439845980895AAE0B1E08C91B5
:1001300080628C938C9188608C93EBE0F1E08081FD
:100140008F7D80838081877F80838C9180648C9376
:100150008C9180618C938C9184608C938C91816064
:100160008C9380818F7B808380818F7E8083808150
:100170008B7F808380818E7F808308959898999863
:100180009A98389A509A579A409858985F98A09899
:10019000A098A29808950E9488000E9495000E944D
:1001A000BE0008950E94CB0082B3FECFCF93DF93B1
:1001B00000D00F92CDB7DEB720E030E44CE956E432
:1001C00069837A838B839C8369817A818B819C810B
:1001D0000E94580669837A838B839C8369817A8124
:1001E0008B819C810E949405862F972F99235CF028
:1001F00090932D0180932C010F900F900F900F90F2
:10020000DF91CF91089580E49CE9F2CFCF93DF9303
:1002100000D00F92CDB7DEB720E030E44CE956E4D1
:1002200069837A838B839C8369817A818B819C81AA
:100230000E94580669837A838B839C8369817A81C3
:100240008B819C810E949405862F972F99235CF0C7
:1002500090932901809328010F900F900F900F9099
:10026000DF91CF91089580E49CE9F2CF282F392FB8
:10027000862F972F8130910559F0892B41F4213039
:10028000310591F122303105C1F1232B21F108957F
:100290002130310571F022303105A1F0232BB9F75F
:1002A000EBE0F1E080818460808380818E7F8083B9
:1002B0000895EBE0F1E080818B7F80838081816015
:1002C00080830895EBE0F1E0808184608083808109
:1002D000816080830895EBE0F1E080818064808319
:1002E00080818F7E80830895EBE0F1E080818F7BB9
:1002F00080838081806180830895EBE0F1E08081DC
:1003000080648083808180618083C1CFCF93DF93BD
:1003100000D00F92CDB7DEB7282F392F203131050D
:100320000CF041C0C901330FAA0BBB0B89839A8320
:10033000AB83BC83BC01CD010E94CC05262F372F97
:10034000482F592F60E070E080E791E40E94B504E7
:1003500020E030E040E751E469837A838B839C831B
:1003600069817A818B819C810E942205362F272FFB
:10037000432F522F682F792F40930A0250930B027C
:1003800060930C0270930D0239832A838B839C83C4
:1003900069817A818B819C810F900F900F900F90D3
:1003A000DF91CF91089530E020E080E090E0E0CF51
:1003B000CF93DF9300D00F92CDB7DEB7282F392F20
:1003C000203131050CF041C0C901330FAA0BBB0B22
:1003D00089839A83AB83BC83BC01CD010E94CC0589
:1003E000262F372F482F592F60E070E080E791E4E7
:1003F0000E94B50420E030E040E751E469837A834D
:100400008B839C8369817A818B819C810E942205E8
:10041000362F272F432F522F682F792F4093060214
:1004200050930702609308027093090239832A836C
:100430008B839C8369817A818B819C810F900F9043
:100440000F900F90DF91CF91089530E020E080E091
:1004500090E0E0CFCF93DF9300D00F92CDB7DEB71F
:1004600061E070E080E090E00E94360160E070E0C2
:1004700080E090E00E94360160E070E080E89FE359
:100480000E94060160E070E080E89FE30E94D600D1
:100490001A82198208C089819A8101969A83898378
:1004A00002970CF063C00E948F0390930502809323
:1004B00004020E942D0390930302809302020E9483
:1004C0002D034F9740F70E948F034F9720F780919D
:1004D0000402909105022091020230910302281734
:1004E000390770F08091020290910302209104027A
:1004F000309105022817390700F11A821982D3CFEB
:10050000821B930B909301028093000260E070E0E5
:1005100080E89FE30E940601809100029091010211
:100520000E94860169837A838B839C8369817A81A7
:100530008B819C810E94D600D5CF821B930B909318
:100540000102809300020E94D80169837A838B8321
:100550009C8369817A818B819C810E94060160E085
:1005600070E080E89FE30E94D600C7CF60E070E0B3
:1005700080E89FE30E94D60060E070E080E89FE39F
:100580000E9406010F900F900F900F90DF91CF9176
:10059000089508950895AF92BF92CF92DF92FF928F
:1005A0000F931F93CF93DF9302EB10E0C6E00F2E63
:1005B000F0EBAF2EB12CF02D0F2EF1EBCF2ED12C76
:1005C000F02D0F2EF3E0FF2EF02DD1E020C0D7BB91
:1005D000F801C08360E070E080E89FE30E940601BC
:1005E00060E070E080E89FE30E94D600F801C083DD
:1005F00080E991E0B89BFECF0197009721F0D7BB2F
:10060000F801C083F7CF0E948F034497E0F0F80110
:10061000C083F5011082F601F08260E070E0CB014A
:100620000E94060160E070E080E89FE30E94D6002F
:1006300084EF91E0B89BFECF0197009741F2D7BBC2
:10064000F801C083F7CFDF91CF911F910F91FF90F9
:10065000DF90CF90BF90AF900895CF93DF9300D0FD
:100660000F92CDB7DEB74698469A25E32A95F1F763
:100670000000469880E197E2A0E0B0E0379905C01D
:100680000197A109B109D0F705C0892B8A2B8B2BC3
:1006900009F442C0109285001092840082E0809399
:1006A0008100E4E8F0E0379B05C0808191818034CF
:1006B0009C49C8F31092810080918400909185003C
:1006C0009C0140E050E029833A834B835C83CA015C
:1006D000B9010E94CA0528E23EE74CE05CE3698369
:1006E0007A838B839C8369817A818B819C810E9430
:1006F000580669837A838B839C8369817A818B8195
:100700009C810E949B05862F972F0F900F900F9032
:100710000F90DF91CF91089587EE93E0F6CFCF93BE
:10072000DF9300D00F92CDB7DEB71798179A25E365
:100730002A95F1F70000179880E197E2A0E0B0E079
:10074000069905C00197A109B109D0F705C0892B09
:100750008A2B8B2B09F442C01092850010928400E2
:1007600082E080938100E4E8F0E0069B05C0808190
:10077000918180349C49C8F310928100809184005B
:10078000909185009C0140E050E029833A834B839F
:100790005C83CA01B9010E94CA0528E23EE74CE029
:1007A0005CE369837A838B839C8369817A818B8103
:1007B0009C810E94580669837A838B839C8369811C
:1007C0007A818B819C810E949B05862F972F0F90A9
:1007D0000F900F900F90DF91CF91089587EE93E0E7
:1007E000F6CFCF93DF9300D00F92CDB7DEB742980C
:1007F000429A25E32A95F1F70000429880E197E2BA
:10080000A0E0B0E0339905C00197A109B109D0F784
:1008100005C0892B8A2B8B2B09F442C010928500CE
:100820001092840082E080938100E4E8F0E0339B42
:1008300005C08081918180349C49C8F31092810069
:1008400080918400909185009C0140E050E02983D4
:100850003A834B835C83CA01B9010E94CA0528E22E
:100860003EE74CE05CE369837A838B839C836981F8
:100870007A818B819C810E94580669837A838B835D
:100880009C8369817A818B819C810E949B05862F44
:10089000972F0F900F900F900F90DF91CF910895A9
:1008A00087EE93E0F6CFCF93DF9300D00F92CDB7D2
:1008B000DEB74498449A25E32A95F1F7000044985E
:1008C00080E197E2A0E0B0E0359905C00197A10969
:1008D000B109D0F705C0892B8A2B8B2B09F442C0B4
:1008E000109285001092840082E080938100E4E8F9
:1008F000F0E0359B05C08081918180349C49C8F32C
:100900001092810080918400909185009C0140E0CC
:1009100050E029833A834B835C83CA01B9010E946A
:10092000CA0528E23EE74CE05CE369837A838B8367
:100930009C8369817A818B819C810E94580669839E
:100940007A838B839C8369817A818B819C810E94CD
:100950009B05862F972F0F900F900F900F90DF9190
:10096000CF91089587EE93E0F6CF5058BB27AA2782
:100970000E94CD040C941E060E94100638F00E94BE
:10098000170620F039F49F3F19F426F40C940D0655
:100990000EF4E095E7FB0C940706E92F0E942F0662
:1009A00058F3BA17620773078407950720F079F4A4
:1009B000A6F50C9451060EF4E0950B2EBA2FA02D3F
:1009C0000B01B90190010C01CA01A0011124FF27FC
:1009D000591B99F0593F50F4503E68F11A16F040F7
:1009E000A22F232F342F4427585FF3CF46953795F6
:1009F0002795A795F0405395C9F77EF41F16BA0BBB
:100A0000620B730B840BBAF09150A1F0FF0FBB1F68
:100A1000661F771F881FC2F70EC0BA0F621F731FB1
:100A2000841F48F4879577956795B795F7959E3F0E
:100A300008F0B0CF9395880F08F09927EE0F97959F
:100A4000879508950E9436050C941E060E9417068D
:100A500058F00E94100640F029F45F3F29F00C94F2
:100A6000070651110C9452060C940D060E942F0695
:100A700068F39923B1F3552391F3951B550BBB27CD
:100A8000AA2762177307840738F09F5F5F4F220F12
:100A9000331F441FAA1FA9F335D00E2E3AF0E0E809
:100AA00032D091505040E695001CCAF72BD0FE2F53
:100AB00029D0660F771F881FBB1F261737074807E7
:100AC000AB07B0E809F0BB0B802DBF01FF2793589F
:100AD0005F4F3AF09E3F510578F00C9407060C9456
:100AE00052065F3FE4F3983ED4F386957795679579
:100AF000B795F7959F5FC9F7880F911D96958795D4
:100B000097F90895E1E0660F771F881FBB1F6217F2
:100B100073078407BA0720F0621B730B840BBA0BB0
:100B2000EE1F88F7E09508950E949B056894B11127
:100B30000C94520608950E94370688F09F5798F04B
:100B4000B92F9927B751B0F0E1F0660F771F881FD2
:100B5000991F1AF0BA95C9F714C0B13091F00E94EC
:100B60005106B1E008950C945106672F782F88271D
:100B7000B85F39F0B93FCCF3869577956795B39513
:100B8000D9F73EF490958095709561957F4F8F4F82
:100B90009F4F0895E89409C097FB3EF49095809587
:100BA000709561957F4F8F4F9F4F9923A9F0F92F33
:100BB00096E9BB279395F695879577956795B795B1
:100BC000F111F8CFFAF4BB0F11F460FF1BC06F5F97
:100BD0007F4F8F4F9F4F16C0882311F096E911C0A9
:100BE000772321F09EE8872F762F05C0662371F0CA
:100BF00096E8862F70E060E02AF09A95660F771FDE
:100C0000881FDAF7880F9695879597F9089597F9D1
:100C10009F6780E870E060E008959FEF80EC0895A2
:100C200000240A94161617061806090608950024CB
:100C30000A9412161306140605060895092E039445
:100C4000000C11F4882352F0BB0F40F4BF2B11F4B9
:100C500060FF04C06F5F7F4F8F4F9F4F089557FD18
:100C60009058440F551F59F05F3F71F04795880F1A
:100C700097FB991F61F09F3F79F0879508951216B1
:100C800013061406551FF2CF4695F1DF08C016165D
:100C900017061806991FF1CF86957105610508940E
:100CA0000895E894BB2766277727CB0197F9089525
:100CB0000E946B060C941E060E94100638F00E94DB
:100CC000170620F0952311F00C9407060C940D06DE
:100CD00011240C9452060E942F0670F3959FC1F3C5
:100CE000950F50E0551F629FF001729FBB27F00DDA
:100CF000B11D639FAA27F00DB11DAA1F649F66272F
:100D0000B00DA11D661F829F2227B00DA11D621F7D
:100D1000739FB00DA11D621F839FA00D611D221F37
:100D2000749F3327A00D611D231F849F600D211D1B
:100D3000822F762F6A2F11249F5750409AF0F1F09E
:100D400088234AF0EE0FFF1FBB1F661F771F881F07
:100D500091505040A9F79E3F510580F00C94070632
:100D60000C9452065F3FE4F3983ED4F38695779552
:100D70006795B795F795E7959F5FC1F7FE2B880FAD
:0E0D8000911D9695879597F90895F894FFCFE9
:00000001FF
