:100000000C9472000C9441010C9486000C948600B0
:100010000C9486000C94AA000C9486000C94860024
:100020000C9486000C9486000C9486000C94860038
:100030000C9486000C9486000C9486000C94860028
:100040000C9486000C9486000C9486000C94860018
:100050000C9486000C9486000C9486000C94860008
:100060000C9486000C9486000C9486000C948600F8
:100070000C9486000C9486000C9486000C948600E8
:100080000C9486000C9486000C9486000C948600D8
:100090000C9486000C9486000C9486000C948600C8
:1000A0000C9486000C9486000C9486000C948600B8
:1000B0000C9486000C9486000C9486000C948600A8
:1000C0000C9486000C9486000C9486000C94860098
:1000D0000C9486000C9486000C9486000C94860088
:1000E0000C94860011241FBECFEFD1E2DEBFCDBF3E
:1000F00000E00CBF22E0A0E0B2E001C01D92A03100
:10010000B207E1F70E94DA010C94EB060C940000B0
:10011000282F392F85E08093B2001092B00083E041
:100120008093B10080E090E040E050E0009789F4D7
:10013000B89BFCCF4F5F5F4F4217530724F081E01D
:1001400087BB81E090E061E067BB66E06093B2004E
:10015000EDCF08951F920F920FB60F9211240BB698
:100160000F922F933F934F935F936F937F938F9350
:100170009F93AF93BF93EF93FF9380910002909171
:1001800001020197C9F081E090E090930102809311
:100190000002FF91EF91BF91AF919F918F917F915D
:1001A0006F915F914F913F912F910F900BBE0F90E8
:1001B0000FBE0F901F90189560E070E0CB010E9479
:1001C0000F0260E070E0CB010E94DF0182E390E06B
:1001D0000E94880061E070E081E090E00E944D02A2
:1001E00060E070E081E090E00E944D0284EF91E0D9
:1001F0000E94880060E070E080E49FE30E940F02AC
:1002000060E070E080E49FE30E94DF0184EF91E012
:100210000E94880060E070E0CB010E940F0260E065
:1002200070E0CB010E94DF01F5CF282F392F8BED35
:100230009BE09093A5008093A400E0EAF0E0808129
:100240008083E1EAF0E080818460808380E090E058
:1002500040E050E00097A1F4C89BFCCF4F5F5F4F98
:100260004217530724F081E089BB81E090E061E010
:1002700069BB6BED7BE07093A5006093A400EACFAF
:1002800008951F920F920FB60F9211240BB60F9282
:100290002F933F934F935F936F937F938F939F938E
:1002A000AF93BF93EF93FF9360E070E0CB010E94A8
:1002B0000F0260E070E0CB010E94DF0182E090E07D
:1002C0000E941501FF91EF91BF91AF919F918F9186
:1002D0007F916F915F914F913F912F910F900BBE46
:1002E0000F900FBE0F901F9018953F980E983E9A52
:1002F0000F9A479816980895AAE0B1E08C91806211
:100300008C938C9188608C93EBE0F1E080818F7D01
:1003100080838081877F80838C9180648C938C9193
:1003200080618C938C9184608C938C9181608C9390
:1003300080818F7B808380818F7E808380818B7F93
:10034000808380818E7F8083089580E49CE99093F0
:100350002701809326018AE8809320018AE1809317
:1003600021010895989899985098389A9A9A579A8E
:100370004098A2985F98A098A0985898E89AE9E6C3
:10038000F0E08081836080830895EAE6F0E0808178
:100390008260808380818160808308950E947501DE
:1003A0000E947C010E94A5010E94B2010E94C50129
:1003B000789408950E94CE010E940804FDCFCF9347
:1003C000DF9300D00F92CDB7DEB720E030E44CE1F0
:1003D00057E469837A838B839C8369817A818B81DB
:1003E0009C810E947E0669837A838B839C836981CA
:1003F0007A818B819C810E94BA05862F972F992341
:100400005CF090932D0180932C010F900F900F9032
:100410000F90DF91CF91089580E49CE9F2CFCF93C4
:10042000DF9300D00F92CDB7DEB720E030E44CE18F
:1004300057E469837A838B839C8369817A818B817A
:100440009C810E947E062DEC3CEC4CE45FE36983CA
:100450007A838B839C8369817A818B819C810E94C2
:100460007E0669837A838B839C8369817A818B8101
:100470009C810E94BA05862F972F99235CF0909358
:100480002901809328010F900F900F900F90DF911A
:10049000CF91089580E49CE9F2CF282F392F862F41
:1004A000972F8130910559F0892B41F42130310586
:1004B00091F122303105C1F1232B21F10895213032
:1004C000310571F022303105A1F0232BB9F7EBE0B3
:1004D000F1E080818460808380818E7F80830895B5
:1004E000EBE0F1E080818B7F80838081816080837D
:1004F0000895EBE0F1E080818460808380818160F9
:1005000080830895EBE0F1E08081806480838081C6
:100510008F7E80830895EBE0F1E080818F7B808384
:100520008081806180830895EBE0F1E080818064C8
:100530008083808180618083C1CFCF93DF9300D09F
:100540000F92CDB7DEB7282F392F203131050CF0AF
:1005500041C0C901330FAA0BBB0B89839A83AB83BC
:10056000BC83BC01CD010E94F205262F372F482FF6
:10057000592F60E070E080E791E40E94DB0420E006
:1005800030E040E751E469837A838B839C836981FF
:100590007A818B819C810E944805362F272F432F1B
:1005A000522F682F792F40930C0250930D026093C5
:1005B0000E0270930F0239832A838B839C83698197
:1005C0007A818B819C810F900F900F900F90DF911B
:1005D000CF91089530E020E080E090E0E0CFCF932D
:1005E000DF9300D00F92CDB7DEB7282F392F2031FF
:1005F00031050CF041C0C901330FAA0BBB0B898335
:100600009A83AB83BC83BC01CD010E94F205262FE7
:10061000372F482F592F60E070E080E791E40E9467
:10062000DB0420E030E040E751E469837A838B8388
:100630009C8369817A818B819C810E944805362F39
:10064000272F432F522F682F792F40930802509362
:10065000090260930A0270930B0239832A838B8309
:100660009C8369817A818B819C810F900F900F9080
:100670000F90DF91CF91089530E020E080E090E08E
:10068000E0CFCF93DF9300D00F92CDB7DEB761E01C
:1006900070E080E090E00E944D0260E070E080E059
:1006A00090E00E944D0260E070E080E89FE30E94CD
:1006B0000F0260E070E080E89FE30E94DF011A8291
:1006C000198208C089819A8101969A838983029749
:1006D0000CF067C00E947904909307028093060291
:1006E0000E94170490930502809304020E9417044D
:1006F0004F9740F70E9479044F9720F72091060208
:1007000030910702809104029091050282179307AD
:10071000F0F028173907C0F5821B930B9093030262
:10072000809302020E94EF0269837A838B839C8309
:1007300069817A818B819C810E940F0260E070E068
:1007400080E89FE30E94DF011A821982C3CF281B31
:10075000390B309303022093020260E070E080E8DE
:100760009FE30E940F0280910202909103020E9477
:100770009D0269837A838B839C8369817A818B81D3
:100780009C810E94DF01E0CF60E070E080E89FE3A1
:100790000E94DF0160E070E080E89FE30E940F02AA
:1007A000D3CF60E070E080E89FE30E94DF0160E06B
:1007B00070E080E89FE30E940F020F900F900F906F
:1007C0000F90DF91CF91089560E070E0CB010E941F
:1007D0000F0260E070E080E89FE30E94DF0184EF99
:1007E00091E00E94880060E070E080E89FE30E9452
:1007F0000F0260E070E080E89FE30E94DF0180E983
:1008000091E00E9488000E9479044497E8F60895D8
:10081000919BFECF81E090E00E944103409AEC9AC8
:100820000E94E40381E090E00E9441030895CF9389
:10083000DF9300D00F92CDB7DEB74698469A25E3F6
:100840002A95F1F70000469880E197E2A0E0B0E039
:10085000379905C00197A109B109D0F705C0892BC7
:100860008A2B8B2B09F442C01092850010928400D1
:1008700082E080938100E4E8F0E0379B05C080814E
:10088000918180349C49C8F310928100809184004A
:10089000909185009C0140E050E029833A834B838E
:1008A0005C83CA01B9010E94F00528E23EE74CE0F2
:1008B0005CE369837A838B839C8369817A818B81F2
:1008C0009C810E947E0669837A838B839C836981E5
:1008D0007A818B819C810E94C105862F972F0F9072
:1008E0000F900F900F90DF91CF91089587EE93E0D6
:1008F000F6CFCF93DF9300D00F92CDB7DEB7179826
:10090000179A25E32A95F1F70000179880E197E2FE
:10091000A0E0B0E0069905C00197A109B109D0F7A0
:1009200005C0892B8A2B8B2B09F442C010928500BD
:100930001092840082E080938100E4E8F0E0069B5E
:1009400005C08081918180349C49C8F31092810058
:1009500080918400909185009C0140E050E02983C3
:100960003A834B835C83CA01B9010E94F00528E2F7
:100970003EE74CE05CE369837A838B839C836981E7
:100980007A818B819C810E947E0669837A838B8326
:100990009C8369817A818B819C810E94C105862F0D
:1009A000972F0F900F900F900F90DF91CF91089598
:1009B00087EE93E0F6CF5058BB27AA270E94F30496
:1009C0000C9444060E94360638F00E943D0620F042
:1009D00039F49F3F19F426F40C9433060EF4E09595
:1009E000E7FB0C942D06E92F0E94550658F3BA1721
:1009F000620773078407950720F079F4A6F50C9435
:100A000077060EF4E0950B2EBA2FA02D0B01B9013D
:100A100090010C01CA01A0011124FF27591B99F074
:100A2000593F50F4503E68F11A16F040A22F232F80
:100A3000342F4427585FF3CF469537952795A795D0
:100A4000F0405395C9F77EF41F16BA0B620B730B77
:100A5000840BBAF09150A1F0FF0FBB1F661F771FE8
:100A6000881FC2F70EC0BA0F621F731F841F48F49D
:100A7000879577956795B795F7959E3F08F0B0CF26
:100A80009395880F08F09927EE0F9795879508950D
:100A90000E945C050C9444060E943D0658F00E949A
:100AA000360640F029F45F3F29F00C942D065111D1
:100AB0000C9478060C9433060E94550668F399232B
:100AC000B1F3552391F3951B550BBB27AA2762174A
:100AD0007307840738F09F5F5F4F220F331F441F57
:100AE000AA1FA9F335D00E2E3AF0E0E832D091508B
:100AF0005040E695001CCAF72BD0FE2F29D0660F78
:100B0000771F881FBB1F261737074807AB07B0E8BA
:100B100009F0BB0B802DBF01FF2793585F4F3AF0C0
:100B20009E3F510578F00C942D060C9478065F3F9B
:100B3000E4F3983ED4F3869577956795B795F79546
:100B40009F5FC9F7880F911D9695879597F908952E
:100B5000E1E0660F771F881FBB1F621773078407CA
:100B6000BA0720F0621B730B840BBA0BEE1F88F7D9
:100B7000E09508950E94C1056894B1110C9478061F
:100B800008950E945D0688F09F5798F0B92F992725
:100B9000B751B0F0E1F0660F771F881F991F1AF068
:100BA000BA95C9F714C0B13091F00E947706B1E050
:100BB00008950C947706672F782F8827B85F39F04F
:100BC000B93FCCF3869577956795B395D9F73EF401
:100BD00090958095709561957F4F8F4F9F4F0895A9
:100BE000E89409C097FB3EF49095809570956195C7
:100BF0007F4F8F4F9F4F9923A9F0F92F96E9BB277D
:100C00009395F695879577956795B795F111F8CFF8
:100C1000FAF4BB0F11F460FF1BC06F5F7F4F8F4F63
:100C20009F4F16C0882311F096E911C0772321F059
:100C30009EE8872F762F05C0662371F096E8862FF1
:100C400070E060E02AF09A95660F771F881FDAF748
:100C5000880F9695879597F9089597F99F6780E88B
:100C600070E060E008959FEF80EC089500240A94FE
:100C70001616170618060906089500240A94121677
:100C80001306140605060895092E0394000C11F4AA
:100C9000882352F0BB0F40F4BF2B11F460FF04C057
:100CA0006F5F7F4F8F4F9F4F089557FD9058440FB0
:100CB000551F59F05F3F71F04795880F97FB991FBB
:100CC00061F09F3F79F08795089512161306140678
:100CD000551FF2CF4695F1DF08C016161706180605
:100CE000991FF1CF86957105610508940895E894E0
:100CF000BB2766277727CB0197F908950E949106B5
:100D00000C9444060E94360638F00E943D0620F0FE
:100D1000952311F00C942D060C94330611240C9499
:100D200078060E94550670F3959FC1F3950F50E029
:100D3000551F629FF001729FBB27F00DB11D639F8D
:100D4000AA27F00DB11DAA1F649F6627B00DA11D33
:100D5000661F829F2227B00DA11D621F739FB00DD9
:100D6000A11D621F839FA00D611D221F749F332749
:100D7000A00D611D231F849F600D211D822F762FE2
:100D80006A2F11249F5750409AF0F1F088234AF0BF
:100D9000EE0FFF1FBB1F661F771F881F915050402B
:100DA000A9F79E3F510580F00C942D060C9478060F
:100DB0005F3FE4F3983ED4F3869577956795B795B2
:100DC000F795E7959F5FC1F7FE2B880F911D9695CC
:0A0DD000879597F90895F894FFCF76
:00000001FF
