:100000000C9472000C94F3000C9486000C948600FF
:100010000C9486000C9488000C9486000C94860046
:100020000C9486000C9486000C9486000C94860038
:100030000C9486000C9486000C9486000C94860028
:100040000C9486000C9486000C9486000C94860018
:100050000C9486000C9486000C9486000C94860008
:100060000C9486000C9486000C9486000C948600F8
:100070000C9486000C9486000C9486000C948600E8
:100080000C9486000C9486000C9486000C948600D8
:100090000C9486000C9486000C9486000C948600C8
:1000A0000C9486000C9486000C9486000C948600B8
:1000B0000C9486000C9486000C9486000C948600A8
:1000C0000C9486000C9486000C9486000C94860098
:1000D0000C9486000C9486000C9486000C94860088
:1000E0000C94860011241FBECFEFD1E2DEBFCDBF3E
:1000F00000E00CBF22E0A0E0B2E001C01D92A03100
:10010000B207E1F70E94E4010C944E070C94000042
:100110001F920F920FB60F9211240BB60F922F93CE
:100120003F934F935F936F937F938F939F93AF937F
:10013000BF93EF93FF93809100029091010201978A
:10014000C9F081E090E09093010280930002FF915A
:10015000EF91BF91AF919F918F917F916F915F913F
:100160004F913F912F910F900BBE0F900FBE0F90AC
:100170001F90189560E070E0CB010E94190260E0CA
:1001800070E0CB010E94E90182E390E00E94F40359
:1001900061E070E081E090E00E94570260E070E072
:1001A00081E090E00E94570284EF91E00E94F40306
:1001B00060E070E080E49FE30E94190260E070E07C
:1001C00080E49FE30E94E90184EF91E00E94F40340
:1001D00060E070E0CB010E94190260E070E0CB01AA
:1001E0000E94E901F5CF1F920F920FB60F921124D2
:1001F0000BB60F922F933F934F935F936F937F9321
:100200008F939F93AF93BF93EF93FF9360E070E062
:10021000CB010E94190260E070E0CB010E94E9016D
:1002200082E090E00E943D04FF91EF91BF91AF9179
:100230009F918F917F916F915F914F913F912F91FE
:100240000F900BBE0F900FBE0F901F9018953F9808
:100250000E983E9A0F9A479816980895529851987A
:100260006D983D9A6C983C9A45984498EAE6F0E07F
:1002700080818260808380818160808380818860CA
:10028000808380818B7F8083ED9A85B5846085BD76
:1002900085B58D7F85BD85B5816085BD1092900047
:1002A000E1E9F0E08081846080831092A000E1EABF
:1002B000F0E08081846080830895089809980A9806
:1002C0000B980C980D98109A119A129A139A149AE6
:1002D000159A0895229A219A2A9A299A0895AAE0AD
:1002E000B1E08C9180628C938C9188608C93EBE070
:1002F000F1E080818F7D80838081877F80838C91F6
:1003000080648C938C9180618C938C9184608C93AD
:100310008C9181608C9380818F7B808380818F7EA4
:10032000808380818B7F808380818E7F808308950E
:100330005098089580E49CE99093270180932601CA
:100340008AE8809320018AE1809321010895E1E009
:10035000F1E08081806380839D9AA598089586E965
:100360008093B2001092B00084E08093B1000895B1
:10037000989899985098389A9A9A579A4098A2982B
:100380005F98A098A0985898E89AE9E6F0E08081F4
:100390008360808382E08093910008950E9427010A
:1003A0000E942E010E945D010E946A010E946F015D
:1003B0000E9498010E949A010E94AF010E94A70129
:1003C0000E94B801789408950E94CE010E946B04A7
:1003D000FDCFCF93DF9300D00F92CDB7DEB720E0F3
:1003E00030E44CE157E469837A838B839C83698191
:1003F0007A818B819C810E94E10669837A838B8359
:100400009C8369817A818B819C810E941D06862F45
:10041000972F99235CF090932D0180932C010F90DE
:100420000F900F900F90DF91CF91089580E49CE999
:10043000F2CFCF93DF9300D00F92CDB7DEB720E09D
:1004400030E44CE157E469837A838B839C83698130
:100450007A818B819C810E94E1062DEC3CEC4CE47E
:100460005FE369837A838B839C8369817A818B8143
:100470009C810E94E10669837A838B839C836981D6
:100480007A818B819C810E941D06862F972F99234C
:100490005CF090932901809328010F900F900F90AA
:1004A0000F90DF91CF91089580E49CE9F2CF282F3F
:1004B000392F862F972F8130910559F0892B41F4E0
:1004C0002130310591F122303105C1F1232B21F189
:1004D00008952130310571F022303105A1F0232B30
:1004E000B9F7EBE0F1E080818460808380818E7FCA
:1004F00080830895EBE0F1E080818B7F80838081B1
:10050000816080830895EBE0F1E0808184608083E6
:100510008081816080830895EBE0F1E080818064D8
:10052000808380818F7E80830895EBE0F1E080817D
:100530008F7B80838081806180830895EBE0F1E090
:10054000808180648083808180618083C1CFCF93EC
:10055000DF9300D00F92CDB7DEB7282F392F20318F
:1005600031050CF041C0C901330FAA0BBB0B8983C5
:100570009A83AB83BC83BC01CD010E945506262F14
:10058000372F482F592F60E070E080E791E40E94F8
:100590003E0520E030E040E751E469837A838B83B5
:1005A0009C8369817A818B819C810E94AB05362F67
:1005B000272F432F522F682F792F40930C025093EF
:1005C0000D0260930E0270930F0239832A838B838E
:1005D0009C8369817A818B819C810F900F900F9011
:1005E0000F90DF91CF91089530E020E080E090E01F
:1005F000E0CFCF93DF9300D00F92CDB7DEB7282F97
:10060000392F203131050CF041C0C901330FAA0B3D
:10061000BB0B89839A83AB83BC83BC01CD010E9451
:100620005506262F372F482F592F60E070E080E7BE
:1006300091E40E943E0520E030E040E751E4698308
:100640007A838B839C8369817A818B819C810E94D0
:10065000AB05362F272F432F522F682F792F40932A
:1006600008025093090260930A0270930B023983C7
:100670002A838B839C8369817A818B819C810F90F3
:100680000F900F900F90DF91CF91089530E020E010
:1006900080E090E0E0CFCF93DF9300D00F92CDB712
:1006A000DEB761E070E080E090E00E94570260E019
:1006B00070E080E090E00E94570260E070E080E827
:1006C0009FE30E94190260E070E080E89FE30E94CF
:1006D000E9011A82198208C089819A8101969A8358
:1006E000898302970CF06DC00E94DC04909307028E
:1006F000809306020E94DC04909307028093060216
:100700000E947A0490930502809304020E947A0466
:100710004F9710F70E94DC044F97F0F620910602E5
:10072000309107028091040290910502821793078D
:10073000F0F028173907C0F5821B930B9093030242
:10074000809302020E94F90269837A838B839C83DF
:1007500069817A818B819C810E94190260E070E03E
:1007600080E89FE30E94E9011A821982BDCF281B0D
:10077000390B309303022093020260E070E080E8BE
:100780009FE30E94190280910202909103020E944D
:10079000A70269837A838B839C8369817A818B81A9
:1007A0009C810E94E901E0CF60E070E080E89FE377
:1007B0000E94E90160E070E080E89FE30E94190276
:1007C000D3CF60E070E080E89FE30E94E90160E041
:1007D00070E080E89FE30E9419020F900F900F9045
:1007E0000F90DF91CF910895282F392F86E08093C5
:1007F000B2001092B00083E08093B10080E090E0FE
:1008000040E050E00097A1F4B89BFCCF4F5F5F4FF2
:10081000421753073CF081E087BB86E08093B2002B
:1008200081E090E061E067BB66E06093B200EACFF0
:10083000089560E070E0CB010E94190260E070E072
:1008400080E89FE30E94E90184EF91E00E94F403B5
:1008500060E070E080E89FE30E94190260E070E0D1
:1008600080E89FE30E94E90180E991E00E94F4039F
:100870000E94DC044497E8F60895282F392F8CED68
:100880009BE09093A5008093A4001092A00084E0C8
:100890008093A10080E090E040E050E00097D1F428
:1008A000C89BFCCF4F5F5F4F4217530754F081E066
:1008B00089BB86E090E09093A5008093A40081E03E
:1008C00090E061E069BB66E070E07093A500609322
:1008D000A400E4CF0895919BFECF81E090E00E94B8
:1008E0004B03409AEC9A0E94190481E090E00E9428
:1008F0004B030895CF93DF9300D00F92CDB7DEB7AF
:100900004698469A25E32A95F1F70000469880E13B
:1009100097E2A0E0B0E0379905C00197A109B109BD
:10092000D0F705C0892B8A2B8B2B09F442C010927B
:1009300085001092840082E080938100E4E8F0E07A
:10094000379B05C08081918180349C49C8F3109207
:10095000810080918400909185009C0140E050E0EE
:1009600029833A834B835C83CA01B9010E945306F1
:1009700028E23EE74CE05CE369837A838B839C83C7
:1009800069817A818B819C810E94E10669837A83E7
:100990008B839C8369817A818B819C810E94240650
:1009A000862F972F0F900F900F900F90DF91CF9180
:1009B000089587EE93E0F6CFCF93DF9300D00F92A8
:1009C000CDB7DEB71798179A25E32A95F1F70000FF
:1009D000179880E197E2A0E0B0E0069905C0019782
:1009E000A109B109D0F705C0892B8A2B8B2B09F4FB
:1009F00042C0109285001092840082E080938100B2
:100A0000E4E8F0E0069B05C08081918180349C4938
:100A1000C8F31092810080918400909185009C0120
:100A200040E050E029833A834B835C83CA01B901DB
:100A30000E94530628E23EE74CE05CE369837A8338
:100A40008B839C8369817A818B819C810E94E106E2
:100A500069837A838B839C8369817A818B819C8172
:100A60000E942406862F972F0F900F900F900F90C3
:100A7000DF91CF91089587EE93E0F6CF5058BB27D2
:100A8000AA270E9456050C94A7060E94990638F0E2
:100A90000E94A00620F039F49F3F19F426F40C942C
:100AA00096060EF4E095E7FB0C949006E92F0E9461
:100AB000B80658F3BA17620773078407950720F042
:100AC00079F4A6F50C94DA060EF4E0950B2EBA2F05
:100AD000A02D0B01B90190010C01CA01A001112444
:100AE000FF27591B99F0593F50F4503E68F11A16F0
:100AF000F040A22F232F342F4427585FF3CF469581
:100B000037952795A795F0405395C9F77EF41F16A2
:100B1000BA0B620B730B840BBAF09150A1F0FF0F6C
:100B2000BB1F661F771F881FC2F70EC0BA0F621F58
:100B3000731F841F48F4879577956795B795F79548
:100B40009E3F08F0B0CF9395880F08F09927EE0FDD
:100B50009795879508950E94BF050C94A7060E945B
:100B6000A00658F00E94990640F029F45F3F29F052
:100B70000C94900651110C94DB060C9496060E947E
:100B8000B80668F39923B1F3552391F3951B550BE0
:100B9000BB27AA2762177307840738F09F5F5F4F50
:100BA000220F331F441FAA1FA9F335D00E2E3AF08F
:100BB000E0E832D091505040E695001CCAF72BD0A7
:100BC000FE2F29D0660F771F881FBB1F26173707F8
:100BD0004807AB07B0E809F0BB0B802DBF01FF272A
:100BE00093585F4F3AF09E3F510578F00C94900671
:100BF0000C94DB065F3FE4F3983ED4F3869577953B
:100C00006795B795F7959F5FC9F7880F911D9695E2
:100C1000879597F90895E1E0660F771F881FBB1F3E
:100C2000621773078407BA0720F0621B730B840BEB
:100C3000BA0BEE1F88F7E09508950E942406689489
:100C4000B1110C94DB0608950E94C00688F09F57EE
:100C500098F0B92F9927B751B0F0E1F0660F771FE0
:100C6000881F991F1AF0BA95C9F714C0B13091F0D6
:100C70000E94DA06B1E008950C94DA06672F782F07
:100C80008827B85F39F0B93FCCF38695779567959B
:100C9000B395D9F73EF490958095709561957F4F07
:100CA0008F4F9F4F0895E89409C097FB3EF49095AD
:100CB0008095709561957F4F8F4F9F4F9923A9F035
:100CC000F92F96E9BB279395F695879577956795C4
:100CD000B795F111F8CFFAF4BB0F11F460FF1BC008
:100CE0006F5F7F4F8F4F9F4F16C0882311F096E99B
:100CF00011C0772321F09EE8872F762F05C0662349
:100D000071F096E8862F70E060E02AF09A95660F01
:100D1000771F881FDAF7880F9695879597F90895BA
:100D200097F99F6780E870E060E008959FEF80EC9E
:100D3000089500240A941616170618060906089541
:100D400000240A9412161306140605060895092EA7
:100D50000394000C11F4882352F0BB0F40F4BF2B16
:100D600011F460FF04C06F5F7F4F8F4F9F4F089556
:100D700057FD9058440F551F59F05F3F71F047954C
:100D8000880F97FB991F61F09F3F79F08795089531
:100D9000121613061406551FF2CF4695F1DF08C050
:100DA000161617061806991FF1CF8695710561056D
:100DB00008940895E894BB2766277727CB0197F915
:100DC00008950E94F4060C94A7060E94990638F034
:100DD0000E94A00620F0952311F00C9490060C942C
:100DE000960611240C94DB060E94B80670F3959FBA
:100DF000C1F3950F50E0551F629FF001729FBB2712
:100E0000F00DB11D639FAA27F00DB11DAA1F649FAD
:100E10006627B00DA11D661F829F2227B00DA11D60
:100E2000621F739FB00DA11D621F839FA00D611DE6
:100E3000221F749F3327A00D611D231F849F600D07
:100E4000211D822F762F6A2F11249F5750409AF030
:100E5000F1F088234AF0EE0FFF1FBB1F661F771FBC
:100E6000881F91505040A9F79E3F510580F00C9487
:100E700090060C94DB065F3FE4F3983ED4F386952E
:100E800077956795B795F795E7959F5FC1F7FE2B27
:100E9000880F911D9695879597F90895F894FFCF3F
:00000001FF
