:100000000C9472000C94B7000C9493000C94930021
:100010000C9493000C94CF000C9493000C949300D8
:100020000C9493000C9493000C9493000C94930004
:100030000C9493000C9493000C9493000C949300F4
:100040000C9493000C9493000C9493000C949300E4
:100050000C9493000C9493000C9493000C949300D4
:100060000C9493000C9493000C9493000C949300C4
:100070000C9493000C9493000C9493000C949300B4
:100080000C9493000C9493000C9493000C94A20095
:100090000C9493000C9493000C9493000C94930094
:1000A0000C9493000C9493000C9493000C94930084
:1000B0000C9493000C9493000C9493000C94930074
:1000C0000C9493000C9493000C9493000C94930064
:1000D0000C9493000C9493000C9493000C94930054
:1000E0000C94930011241FBECFEFD1E2DEBFCDBF31
:1000F00000E00CBF12E0A0E0B2E0EAE5F2E100E0CF
:100100000BBF02C007900D92A430B107D9F722E0CF
:10011000A4E0B2E001C01D92AC31B207E1F70E9449
:1001200065010C942B090C940000A29A1092950082
:100130001092940081E088BBE1E7F0E0808181606B
:10014000808308958F938FB78F938BB78F93EF939F
:10015000FF93A298E1E7F0E080818E7F8083FF919A
:10016000EF918F918BBF8F918FBF8F9118952F93A8
:100170002FB72F938F939F9340985F982F982FEFCF
:1001800089E698E1215080409040E1F700C00000EE
:100190002F9A9F918F912F912FBF2F9118951F927A
:1001A0000F920FB60F9211240BB60F922F933F931D
:1001B0004F935F936F937F938F939F93AF93BF936F
:1001C000EF93FF9381E090E00E949E03FF91EF91F7
:1001D000BF91AF919F918F917F916F915F914F915F
:1001E0003F912F910F900BBE0F900FBE0F901F905D
:1001F0001895E1EAF0E080818460808380818D7FC2
:10020000808380818E7F808308953F980E983B98ED
:100210003D983E9A0F9A3A9A3C9A47981698439876
:10022000459808956C987498EAE6F0E080818360C0
:1002300080830895AAE0B1E08C9180628C938C91C8
:1002400088608C93EBE0F1E080818F7D80838081FA
:10025000877F80838C9180648C938C9180618C9358
:100260008C9184608C938C9181608C9380818F7B46
:10027000808380818F7E808380818B7F808380815B
:100280008E7F80830895989899985098389A9A9A72
:10029000579A4098A2985F98A098A0985898E89A82
:1002A000E9E6F0E080818360808382E080939100C2
:1002B00008950E94F9000E9405010E9412010E9407
:1002C0001A010E944301789408950E945901909B5D
:1002D000FECF0E942005FBCFCF93DF9300D00F927B
:1002E000CDB7DEB720E030E64AEE56E469837A8384
:1002F0008B839C8369817A818B819C810E94BE085B
:1003000069837A838B839C8369817A818B819C81C9
:100310000E94FA07862F972F99235CF090932D0166
:1003200080932C010F900F900F900F90DF91CF9141
:10033000089580E49CE9F2CFCF93DF9300D00F9231
:10034000CDB7DEB720E030E64AEE56E469837A8323
:100350008B839C8369817A818B819C810E94BE08FA
:1003600069837A838B839C8369817A818B819C8169
:100370000E94FA07862F972F99235CF0909329010A
:10038000809328010F900F900F900F90DF91CF91E5
:10039000089580E49CE9F2CF282F392F862F972FDC
:1003A0008130910559F0892B41F42130310591F1CB
:1003B00022303105C1F1232B21F10895213031057F
:1003C00071F022303105A1F0232BB9F7EBE0F1E019
:1003D00080818460808380818E7F80830895EBE0BC
:1003E000F1E080818B7F80838081816080830895AC
:1003F000EBE0F1E080818460808380818160808394
:100400000895EBE0F1E080818064808380818F7EBD
:1004100080830895EBE0F1E080818F7B8083808191
:10042000806180830895EBE0F1E0808180648083C7
:10043000808180618083C1CFCF93DF9300D00F9202
:10044000CDB7DEB7282F392F203131050CF041C050
:10045000C901330FAA0BBB0B89839A83AB83BC837F
:10046000BC01CD010E943208262F372F482F592F6B
:1004700060E070E080E791E40E941B0720E030E03C
:1004800040E751E469837A838B839C8369817A8115
:100490008B819C810E948807362F272F432F522F54
:1004A000682F792F409318025093190260931A0213
:1004B00070931B0239832A838B839C8369817A81A1
:1004C0008B819C810F900F900F900F90DF91CF91B7
:1004D000089530E020E080E090E0E0CFCF93DF931C
:1004E00000D00F92CDB7DEB7282F392F203131053C
:1004F0000CF041C0C901330FAA0BBB0B89839A834F
:10050000AB83BC83BC01CD010E943208262F372F5C
:10051000482F592F60E070E080E791E40E941B07AC
:1005200020E030E040E751E469837A838B839C8349
:1005300069817A818B819C810E948807362F272FC1
:10054000432F522F682F792F409314025093150296
:10055000609316027093170239832A838B839C83DE
:1005600069817A818B819C810F900F900F900F9001
:10057000DF91CF91089530E020E080E090E0E0CF7F
:100580000F931F93CF93DF9300D00F92CDB7DEB7B9
:1005900010920D0210920C0261E070E080E090E099
:1005A0000E94CC0160E070E080E090E00E94CC010D
:1005B00060E070E080E89FE30E949C0160E070E0F2
:1005C00080E89FE30E946C0100E010E01A8219822B
:1005D00023C080E090E00330110524F482E090E035
:1005E000801B910B080F191F0E94F50590931302B1
:1005F000809312020E94930590931102809310023F
:100600000E9493054F9770F189819A8101969A8390
:10061000898302970CF07DC080910C0290910D02AD
:10062000892B09F476C09099DFCF919BDDCF60E0F4
:1006300070E0CB010E949C0160E070E0CB010E9461
:100640006C010E9495001092A5001092A400C801B0
:10065000823091050CF0BDCFC89BFACF21E029BBB9
:100660000196F6CF0E94F5054F9770F62091120281
:10067000309113028091100290911102821793071A
:10068000F0F028173907C0F5821B930B90930F02E7
:1006900080930E020E946E0269837A838B839C830F
:1006A00069817A818B819C810E949C0160E070E06D
:1006B00080E89FE30E946C011A821982ADCF281B4B
:1006C000390B30930F0220930E0260E070E080E857
:1006D0009FE30E949C0180910E0290910F020E9464
:1006E0001C0269837A838B839C8369817A818B81E5
:1006F0009C810E946C01E0CF60E070E080E89FE3A5
:100700000E946C0160E070E080E89FE30E949C0121
:10071000D3CF60E070E080E89FE30E946C0160E06E
:1007200070E080E89FE30E949C010F900F900F9073
:100730000F90DF91CF911F910F910895282F392F9E
:100740002130310541F02230310561F080910C02F9
:1007500090910D02089581E090E090930D028093B6
:100760000C02F4CF10920D0210920C02EFCFEF9218
:10077000FF920F931F93CF93DF9300D000D0CDB79C
:10078000DEB7082F192F6D83798361E070E08D81CA
:1007900099810E94CC0160E070E08D8199810E9476
:1007A000CC0160E070E080E89FE30E949C0160E083
:1007B00070E080E89FE30E946C01EE24E394F12C4A
:1007C0009EC00E94F50590930B0280930A020E943E
:1007D000B90690930902809308020E949305282F7E
:1007E000392F80910602909107029E838D83892B79
:1007F00069F42F3131050CF445C081E090E090930D
:100800000702809306029E838D8383C08D819E8123
:100810000197E9F52E3131050CF07BC0EC9A1E836F
:100820000D8377C00E94930590930B0280930A0278
:100830000E94570690930902809308020E94F505D2
:10084000282F392F80910602909107029E838D8375
:10085000892B61F42F313105FCF081E090E0909319
:100860000702809306021E830D8353C08D819E81F3
:100870000197A9F42E3131050CF04BC0EC9A1E8281
:100880001D8247C081E090E09E838D8342C081E05D
:1008900090E09E838D833DC01E830D833AC01E83EE
:1008A0000D8337C0281B390B3093050220930402B7
:1008B00060E070E080E89FE30E949C018091040268
:1008C000909105020E941C0269837A838B839C832A
:1008D00069817A818B819C810E946C010CC060E0EF
:1008E00070E080E89FE30E946C0160E070E080E8C7
:1008F0009FE30E949C018D819E81892B91F10115BE
:10090000110509F45ECF0130110509F48BCFED829A
:10091000FE8220910A0230910B0280910802909190
:1009200009028217930708F4BDCF28173907B8F6D4
:10093000821B930B90930502809304020E946E0227
:1009400069837A838B839C8369817A818B819C8183
:100950000E949C0160E070E080E89FE30E946C01CF
:10096000CACF0F900F900F900F900F900F90DF91C4
:10097000CF911F910F91FF90EF900895AF92BF928A
:10098000CF92DF92FF920F931F93CF93DF9302EBEF
:1009900010E0C6E00F2EF0EBAF2EB12CF02D0F2E95
:1009A000F1EBCF2ED12CF02D0F2EF3E0FF2EF02DFA
:1009B000D1E020C0D7BBF801C08360E070E080E8E0
:1009C0009FE30E949C0160E070E080E89FE30E944A
:1009D0006C01F801C08380E991E0B89BFECF0197DC
:1009E000009721F0D7BBF801C083F7CF0E94F5052F
:1009F0004497E0F0F801C083F5011082F601F0821F
:100A000060E070E0CB010E949C0160E070E080E853
:100A10009FE30E946C0184EF91E0B89BFECF0197A9
:100A2000009741F2D7BBF801C083F7CFDF91CF9198
:100A30001F910F91FF90DF90CF90BF90AF900895DE
:100A4000919BFECF0E9495000E94C002409A0E9496
:100A5000BE040895279A269A2F9A2E9A81988298F2
:100A600083980895799B1AC08091020290910302A5
:100A7000892BA1F42F9A2E9A2FEF86E791E021502F
:100A800080409040E1F700C0000081E090E090934A
:100A9000030280930202799B0AC00895799906C0E7
:100AA0008091020290910302019709F008952F9816
:100AB0002E982FEF81EE94E0215080409040E1F796
:100AC00000C000001092030210920202EFCF919B2F
:100AD00006C08091000290910102019781F09199E6
:100AE0000DC08091000290910102892B39F42F9A58
:100AF00081E090E0909301028093000208952F9886
:100B00002FEF83ED90E3215080409040E1F700C04B
:100B100000000E94950010920102109200020895B8
:100B2000799B409A0895CF93DF9300D00F92CDB771
:100B3000DEB74698469A25E32A95F1F700004698D5
:100B400080E197E2A0E0B0E0379905C00197A109E4
:100B5000B109D0F705C0892B8A2B8B2B09F442C031
:100B6000109285001092840082E080938100E4E876
:100B7000F0E0379B05C08081918180349C49C8F3A7
:100B80001092810080918400909185009C0140E04A
:100B900050E029833A834B835C83CA01B9010E94E8
:100BA000300828E23EE74CE05CE369837A838B837C
:100BB0009C8369817A818B819C810E94BE086983B4
:100BC0007A838B839C8369817A818B819C810E944B
:100BD0000108862F972F0F900F900F900F90DF91A5
:100BE000CF91089587EE93E0F6CFCF93DF9300D0B7
:100BF0000F92CDB7DEB71798179A25E32A95F1F72C
:100C00000000179880E197E2A0E0B0E0069905C0E7
:100C10000197A109B109D0F705C0892B8A2B8B2B2D
:100C200009F442C0109285001092840082E0809303
:100C30008100E4E8F0E0069B05C08081918180346A
:100C40009C49C8F3109281008091840090918500A6
:100C50009C0140E050E029833A834B835C83CA01C6
:100C6000B9010E94300828E23EE74CE05CE369836A
:100C70007A838B839C8369817A818B819C810E949A
:100C8000BE0869837A838B839C8369817A818B8197
:100C90009C810E940108862F972F0F900F900F9034
:100CA0000F90DF91CF91089587EE93E0F6CFCF9329
:100CB000DF9300D00F92CDB7DEB74298429A25E37A
:100CC0002A95F1F70000429880E197E2A0E0B0E0B9
:100CD000339905C00197A109B109D0F705C0892B47
:100CE0008A2B8B2B09F442C010928500109284004D
:100CF00082E080938100E4E8F0E0339B05C08081CE
:100D0000918180349C49C8F31092810080918400C5
:100D1000909185009C0140E050E029833A834B8309
:100D20005C83CA01B9010E94300828E23EE74CE02A
:100D30005CE369837A838B839C8369817A818B816D
:100D40009C810E94BE0869837A838B839C8369811E
:100D50007A818B819C810E940108862F972F0F90AA
:100D60000F900F900F90DF91CF91089587EE93E051
:100D7000F6CFCF93DF9300D00F92CDB7DEB7449874
:100D8000449A25E32A95F1F70000449880E197E220
:100D9000A0E0B0E0359905C00197A109B109D0F7ED
:100DA00005C0892B8A2B8B2B09F442C01092850039
:100DB0001092840082E080938100E4E8F0E0359BAB
:100DC00005C08081918180349C49C8F310928100D4
:100DD00080918400909185009C0140E050E029833F
:100DE0003A834B835C83CA01B9010E94300828E230
:100DF0003EE74CE05CE369837A838B839C83698163
:100E00007A818B819C810E94BE0869837A838B835F
:100E10009C8369817A818B819C810E940108862F45
:100E2000972F0F900F900F900F90DF91CF91089513
:100E300087EE93E0F6CF5058BB27AA270E943307CE
:100E40000C9484080E94760838F00E947D0820F0F7
:100E500039F49F3F19F426F40C9473080EF4E095CE
:100E6000E7FB0C946D08E92F0E94950858F3BA1718
:100E7000620773078407950720F079F4A6F50C94B0
:100E8000B7080EF4E0950B2EBA2FA02D0B01B90177
:100E900090010C01CA01A0011124FF27591B99F0F0
:100EA000593F50F4503E68F11A16F040A22F232FFC
:100EB000342F4427585FF3CF469537952795A7954C
:100EC000F0405395C9F77EF41F16BA0B620B730BF3
:100ED000840BBAF09150A1F0FF0FBB1F661F771F64
:100EE000881FC2F70EC0BA0F621F731F841F48F419
:100EF000879577956795B795F7959E3F08F0B0CFA2
:100F00009395880F08F09927EE0F97958795089588
:100F10000E949C070C9484080E947D0858F00E944F
:100F2000760840F029F45F3F29F00C946D085111C8
:100F30000C94B8080C9473080E94950868F39923E0
:100F4000B1F3552391F3951B550BBB27AA276217C5
:100F50007307840738F09F5F5F4F220F331F441FD2
:100F6000AA1FA9F335D00E2E3AF0E0E832D0915006
:100F70005040E695001CCAF72BD0FE2F29D0660FF3
:100F8000771F881FBB1F261737074807AB07B0E836
:100F900009F0BB0B802DBF01FF2793585F4F3AF03C
:100FA0009E3F510578F00C946D080C94B8085F3F93
:100FB000E4F3983ED4F3869577956795B795F795C2
:100FC0009F5FC9F7880F911D9695879597F90895AA
:100FD000E1E0660F771F881FBB1F62177307840746
:100FE000BA0720F0621B730B840BBA0BEE1F88F755
:100FF000E09508950E9401086894B1110C94B80816
:1010000008950E949D0888F09F5798F0B92F99275E
:10101000B751B0F0E1F0660F771F881F991F1AF0E3
:10102000BA95C9F714C0B13091F00E94B708B1E089
:1010300008950C94B708672F782F8827B85F39F088
:10104000B93FCCF3869577956795B395D9F73EF47C
:1010500090958095709561957F4F8F4F9F4F089524
:10106000E89409C097FB3EF4909580957095619542
:101070007F4F8F4F9F4F9923A9F0F92F96E9BB27F8
:101080009395F695879577956795B795F111F8CF74
:10109000FAF4BB0F11F460FF1BC06F5F7F4F8F4FDF
:1010A0009F4F16C0882311F096E911C0772321F0D5
:1010B0009EE8872F762F05C0662371F096E8862F6D
:1010C00070E060E02AF09A95660F771F881FDAF7C4
:1010D000880F9695879597F9089597F99F6780E807
:1010E00070E060E008959FEF80EC089500240A947A
:1010F0001616170618060906089500240A941216F3
:101100001306140605060895092E0394000C11F425
:10111000882352F0BB0F40F4BF2B11F460FF04C0D2
:101120006F5F7F4F8F4F9F4F089557FD9058440F2B
:10113000551F59F05F3F71F04795880F97FB991F36
:1011400061F09F3F79F087950895121613061406F3
:10115000551FF2CF4695F1DF08C016161706180680
:10116000991FF1CF86957105610508940895E8945B
:10117000BB2766277727CB0197F908950E94D108EE
:101180000C9484080E94760838F00E947D0820F0B4
:10119000952311F00C946D080C94730811240C9491
:1011A000B8080E94950870F3959FC1F3950F50E021
:1011B000551F629FF001729FBB27F00DB11D639F09
:1011C000AA27F00DB11DAA1F649F6627B00DA11DAF
:1011D000661F829F2227B00DA11D621F739FB00D55
:1011E000A11D621F839FA00D611D221F749F3327C5
:1011F000A00D611D231F849F600D211D822F762F5E
:101200006A2F11249F5750409AF0F1F088234AF03A
:10121000EE0FFF1FBB1F661F771F881F91505040A6
:10122000A9F79E3F510580F00C946D080C94B80806
:101230005F3FE4F3983ED4F3869577956795B7952D
:10124000F795E7959F5FC1F7FE2B880F911D969547
:0A125000879597F90895F894FFCFF1
:04125A00010001008E
:00000001FF
